{
  "_format": "hh-sol-artifact-1",
  "contractName": "DataTypes",
  "sourceName": "contracts/basics/DataTypes.sol",
  "abi": [
    {
      "inputs": [],
      "name": "printDataTypes",
      "outputs": [],
      "stateMutability": "view",
      "type": "function"
    }
  ],
  "bytecode": "0x60806040526105396000557ffffffffffffffffffffffffffffffffffffffffffffffffffffffffffffffffb6001556001600260006101000a81548160ff0219169083151502179055506040518060400160405280600881526020017f42656f766f6e6e690000000000000000000000000000000000000000000000008152506003908161008d9190610369565b507355cae218c9cdd54e3f07f363d52ed7506dc1b1ae600460006101000a81548173ffffffffffffffffffffffffffffffffffffffff021916908373ffffffffffffffffffffffffffffffffffffffff1602179055507f636174000000000000000000000000000000000000000000000000000000000060055534801561011357600080fd5b5061043b565b600081519050919050565b7f4e487b7100000000000000000000000000000000000000000000000000000000600052604160045260246000fd5b7f4e487b7100000000000000000000000000000000000000000000000000000000600052602260045260246000fd5b6000600282049050600182168061019a57607f821691505b6020821081036101ad576101ac610153565b5b50919050565b60008190508160005260206000209050919050565b60006020601f8301049050919050565b600082821b905092915050565b6000600883026102157fffffffffffffffffffffffffffffffffffffffffffffffffffffffffffffffff826101d8565b61021f86836101d8565b95508019841693508086168417925050509392505050565b6000819050919050565b6000819050919050565b600061026661026161025c84610237565b610241565b610237565b9050919050565b6000819050919050565b6102808361024b565b61029461028c8261026d565b8484546101e5565b825550505050565b600090565b6102a961029c565b6102b4818484610277565b505050565b5b818110156102d8576102cd6000826102a1565b6001810190506102ba565b5050565b601f82111561031d576102ee816101b3565b6102f7846101c8565b81016020851015610306578190505b61031a610312856101c8565b8301826102b9565b50505b505050565b600082821c905092915050565b600061034060001984600802610322565b1980831691505092915050565b6000610359838361032f565b9150826002028217905092915050565b61037282610119565b67ffffffffffffffff81111561038b5761038a610124565b5b6103958254610182565b6103a08282856102dc565b600060209050601f8311600181146103d357600084156103c1578287015190505b6103cb858261034d565b865550610433565b601f1984166103e1866101b3565b60005b82811015610409578489015182556001820191506020850194506020810190506103e4565b868310156104265784890151610422601f89168261032f565b8355505b6001600288020188555050505b505050505050565b610a7d8061044a6000396000f3fe608060405234801561001057600080fd5b506004361061002b5760003560e01c8063ff7b706e14610030575b600080fd5b61003861003a565b005b6101036040518060400160405280600d81526020017f4d79206e616d65206973202573000000000000000000000000000000000000008152506003805461008090610791565b80601f01602080910402602001604051908101604052809291908181526020018280546100ac90610791565b80156100f95780601f106100ce576101008083540402835291602001916100f9565b820191906000526020600020905b8154815290600101906020018083116100dc57829003601f168201915b5050505050610297565b6101646040518060400160405280601781526020017f4d792077616c6c65742061646472657373206973202573000000000000000000815250600460009054906101000a900473ffffffffffffffffffffffffffffffffffffffff16610333565b6101b26040518060400160405280601a81526020017f416d2049206120626164206d6f7468616675636b613f3a202573000000000000815250600260009054906101000a900460ff166103cf565b6101f36040518060400160405280601881526020017f4d79206661766f72697465206e756d626572206973202573000000000000000081525060005461046b565b6101fb610507565b6102396040518060400160405280601381526020017f42656c6f7720697320616e20696e743235363a00000000000000000000000000815250610547565b6102446001546105e0565b61024c610507565b61028a6040518060400160405280601381526020017f42656c6f77206973206120627974657333323a00000000000000000000000000815250610547565b610295600554610679565b565b61032f82826040516024016102ad929190610852565b6040516020818303038152906040527f4b5c4277000000000000000000000000000000000000000000000000000000007bffffffffffffffffffffffffffffffffffffffffffffffffffffffff19166020820180517bffffffffffffffffffffffffffffffffffffffffffffffffffffffff8381831617835250505050610712565b5050565b6103cb82826040516024016103499291906108ca565b6040516020818303038152906040527f319af333000000000000000000000000000000000000000000000000000000007bffffffffffffffffffffffffffffffffffffffffffffffffffffffff19166020820180517bffffffffffffffffffffffffffffffffffffffffffffffffffffffff8381831617835250505050610712565b5050565b61046782826040516024016103e5929190610915565b6040516020818303038152906040527fc3b55635000000000000000000000000000000000000000000000000000000007bffffffffffffffffffffffffffffffffffffffffffffffffffffffff19166020820180517bffffffffffffffffffffffffffffffffffffffffffffffffffffffff8381831617835250505050610712565b5050565b610503828260405160240161048192919061095e565b6040516020818303038152906040527fb60e72cc000000000000000000000000000000000000000000000000000000007bffffffffffffffffffffffffffffffffffffffffffffffffffffffff19166020820180517bffffffffffffffffffffffffffffffffffffffffffffffffffffffff8381831617835250505050610712565b5050565b6105456040518060400160405280600a81526020017f2d2d2d2d2d2d2d2d2d2d00000000000000000000000000000000000000000000815250610547565b565b6105dd8160405160240161055b919061098e565b6040516020818303038152906040527f41304fac000000000000000000000000000000000000000000000000000000007bffffffffffffffffffffffffffffffffffffffffffffffffffffffff19166020820180517bffffffffffffffffffffffffffffffffffffffffffffffffffffffff8381831617835250505050610712565b50565b610676816040516024016105f491906109c9565b6040516020818303038152906040527f2d5b6cb9000000000000000000000000000000000000000000000000000000007bffffffffffffffffffffffffffffffffffffffffffffffffffffffff19166020820180517bffffffffffffffffffffffffffffffffffffffffffffffffffffffff8381831617835250505050610712565b50565b61070f8160405160240161068d91906109fd565b6040516020818303038152906040527f27b7cf85000000000000000000000000000000000000000000000000000000007bffffffffffffffffffffffffffffffffffffffffffffffffffffffff19166020820180517bffffffffffffffffffffffffffffffffffffffffffffffffffffffff8381831617835250505050610712565b50565b6107298161072161072c61074d565b63ffffffff16565b50565b60006a636f6e736f6c652e6c6f679050600080835160208501845afa505050565b610758819050919050565b610760610a18565b565b7f4e487b7100000000000000000000000000000000000000000000000000000000600052602260045260246000fd5b600060028204905060018216806107a957607f821691505b6020821081036107bc576107bb610762565b5b50919050565b600081519050919050565b600082825260208201905092915050565b60005b838110156107fc5780820151818401526020810190506107e1565b60008484015250505050565b6000601f19601f8301169050919050565b6000610824826107c2565b61082e81856107cd565b935061083e8185602086016107de565b61084781610808565b840191505092915050565b6000604082019050818103600083015261086c8185610819565b905081810360208301526108808184610819565b90509392505050565b600073ffffffffffffffffffffffffffffffffffffffff82169050919050565b60006108b482610889565b9050919050565b6108c4816108a9565b82525050565b600060408201905081810360008301526108e48185610819565b90506108f360208301846108bb565b9392505050565b60008115159050919050565b61090f816108fa565b82525050565b6000604082019050818103600083015261092f8185610819565b905061093e6020830184610906565b9392505050565b6000819050919050565b61095881610945565b82525050565b600060408201905081810360008301526109788185610819565b9050610987602083018461094f565b9392505050565b600060208201905081810360008301526109a88184610819565b905092915050565b6000819050919050565b6109c3816109b0565b82525050565b60006020820190506109de60008301846109ba565b92915050565b6000819050919050565b6109f7816109e4565b82525050565b6000602082019050610a1260008301846109ee565b92915050565b7f4e487b7100000000000000000000000000000000000000000000000000000000600052605160045260246000fdfea2646970667358221220b2e1d546815eb4b5d52d1bf92a8bad5fb43e04f0c9dfa6a1c716ace8266b95e564736f6c63430008190033",
  "linkReferences": {},
  "deployedLinkReferences": {}
}