{
  "_format": "hh-sol-artifact-1",
  "contractName": "Math",
  "sourceName": "contracts/Math.sol",
  "abi": [
    {
      "inputs": [],
      "name": "add",
      "outputs": [
        {
          "internalType": "uint256",
          "name": "",
          "type": "uint256"
        }
      ],
      "stateMutability": "pure",
      "type": "function"
    },
    {
      "inputs": [
        {
          "internalType": "uint256",
          "name": "_num1",
          "type": "uint256"
        },
        {
          "internalType": "uint256",
          "name": "_num2",
          "type": "uint256"
        }
      ],
      "name": "addWithParams",
      "outputs": [
        {
          "internalType": "uint256",
          "name": "",
          "type": "uint256"
        }
      ],
      "stateMutability": "pure",
      "type": "function"
    },
    {
      "inputs": [
        {
          "internalType": "uint256",
          "name": "_num1",
          "type": "uint256"
        },
        {
          "internalType": "uint256",
          "name": "_num2",
          "type": "uint256"
        }
      ],
      "name": "subtract",
      "outputs": [
        {
          "internalType": "uint256",
          "name": "",
          "type": "uint256"
        }
      ],
      "stateMutability": "pure",
      "type": "function"
    }
  ],
  "bytecode": "0x6080604052348015600f57600080fd5b5061026b8061001f6000396000f3fe608060405234801561001057600080fd5b50600436106100415760003560e01c80633ef5e445146100465780634f2be91f146100765780636de4160014610094575b600080fd5b610060600480360381019061005b9190610134565b6100c4565b60405161006d9190610183565b60405180910390f35b61007e6100da565b60405161008b9190610183565b60405180910390f35b6100ae60048036038101906100a99190610134565b6100e3565b6040516100bb9190610183565b60405180910390f35b600081836100d291906101cd565b905092915050565b60006005905090565b600081836100f19190610201565b905092915050565b600080fd5b6000819050919050565b610111816100fe565b811461011c57600080fd5b50565b60008135905061012e81610108565b92915050565b6000806040838503121561014b5761014a6100f9565b5b60006101598582860161011f565b925050602061016a8582860161011f565b9150509250929050565b61017d816100fe565b82525050565b60006020820190506101986000830184610174565b92915050565b7f4e487b7100000000000000000000000000000000000000000000000000000000600052601160045260246000fd5b60006101d8826100fe565b91506101e3836100fe565b92508282039050818111156101fb576101fa61019e565b5b92915050565b600061020c826100fe565b9150610217836100fe565b925082820190508082111561022f5761022e61019e565b5b9291505056fea2646970667358221220e746d64d5c5c7f952917210e5694bb00bf9f04b6e76aef77116d0a15faa4731164736f6c63430008190033",
  "linkReferences": {},
  "deployedLinkReferences": {}
}